:100000000BC010C00FC00EC00DC00CC00BC00AC08A
:1000100009C008C007C006C011241FBECFEDCDBF68
:1000200047D094C0EDCF87B38D6387BBB998C19A91
:1000300088B3886188BBC5980895982F28E080E030
:1000400097FF0AC0C09AC29A880FB1998160C2987E
:10005000990F2150A9F70895C098F5CF80E287B98C
:1000600086E886B90895369A3699FECF85B1089507
:10007000CF93C82FC39881E1E0DF8C2FDEDFC39AD6
:10008000CF910895282FE82FF92F80E037E09E2F99
:10009000921B961708F008959191892798E087FFA1
:1000A00005C0880F83279150D1F7F1CF880FFBCF80
:1000B000CDB7DD27C350CDBFB6DFD0DFE12CD12CCB
:1000C00000E0C4988AE18A95F1F700C080E0B5DFCE
:1000D000F82E80E0B2DF898380E0AFDF8A8380E0A2
:1000E000ACDF8B8380E0A9DF182FC49A9AEAF9125B
:1000F00025C063E09D2F8C2F0196C4DF18131EC00E
:10010000898180FD14C0C59AFB801A81898181FF95
:1001100010C08F2DEF1010C0EF2CD12E102F8FE1BB
:100120009EE40197F1F700C00000012FCACFC598E7
:10013000EBCFD11689F3812F9BDFEECFB599C59810
:1001400092DF182F801759F393DFE9CFF894FFCF90
:00000001FF
