:100000000BC024C05EC022C021C020C01FC01EC0C3
:1000100071C01CC01BC01AC011241FBECFEDCDBFC4
:1000200010E0A0E6B0E0E6E5F2E003C0C895319646
:100030000D92A236B107D1F720E0A2E6B0E001C0F0
:100040001D92A836B207E1F7B8D003C1D9CF8AB361
:100050008C618ABBB99A87B38A7E87BBC49A87B3FF
:100060008F7987BB88B3806688BB8BB780628BBF74
:10007000089580E287B986E886B9089597B1907EA1
:100080008F71982B97B9369A3699FECF85B108951E
:1000900088E58DB90895282FE82FF92F80E037E003
:1000A0009E2F921B961708F008959191892798E04A
:1000B00087FF05C0880F83279150D1F7F1CF880FB4
:1000C000FBCF8F931F9280E0182EB49906C0109238
:1000D00064008AEA8FB980E48EB9B69903C081E0E2
:1000E00080936600B59903C081E0809365001F90FE
:1000F0008F9118951F920F920FB60F9211242F9384
:100100003F934F935F936F937F938F939F93AF939F
:10011000BF93EF93FF93CF93DF93CDB7DD27C3500A
:10012000CDBF809164008F5F8093640080916400F4
:100130008130F1F48091670090916000880F892BE5
:100140008FB980E48EB9CD5FCDBFDF91CF91FF91A4
:10015000EF91BF91AF919F918F917F916F915F913F
:100160004F913F912F910F900FBE0F901F901895B8
:1001700080916400823019F480916300E1CF809116
:100180006400833019F480916200DACF80916400BA
:100190008430B9F68091670090916000880F892BB8
:1001A0008983809163008A83809162008B8363E0FE
:1001B0009D2F8C2F01966FDFC3CF49DF5ADF88E573
:1001C0008DB9789480E05ADF8093630081E056DF38
:1001D0008093620080916600882381F08FE39CE920
:1001E0000197F1F700C00000B69906C08091600049
:1001F00091E08927809360001092660080916500ED
:10020000882381F08FE39CE90197F1F700C000009B
:10021000B59906C08091670091E0892780936700B7
:100220001092650080916000882371F0DA9A8091C5
:10023000670081110BC0DC9ADB988FE19EE4019787
:10024000F1F700C00000BECFDA98F1CFDC98DB9A5E
:06025000F4CFF894FFCF8B
:020256000100A5
:00000001FF
